S013000053747972656E686574656E2E7372656378
S113000045C000004BC0000049C0000047C00000CC
S113001045C0000043C0000041C000003FC00000D4
S11300203DC000003BC0000039C0000037C00000E4
S113003035C0000033C0000031C000002FC00000F4
S11300402DC000002BC0000029C0000027C0000004
S113005025C0000023C0000021C000001FC0000014
S11300601DC000001BC0000019C0000017C0000024
S113007015C0000013C0000011C000000FC0000034
S11300800DC000000BC0000009C0000011241FBEF9
S1130090CFEFD0E4DEBFCDBF22D03CC0B1CF83EAE6
S11300A0809380008AE0809381000895F89490936F
S11300B089008093880070938B0060938A00789401
S11300C0089588E48BB96CE271E08CE291E0EECFA4
S11300D0089560E070E080E090E0E8CF0895DFDF0D
S11300E08AB188678AB9EDDF2FE980E091E4215075
S11300F080409040E1F700C000002FE980E091E4E7
S1130100215080409040E1F700C00000E2DF80E031
S10B011090E00895F894FFCF7C
S9030000FC
